{
  "contractName": "HelloEvent",
  "abi": [
    {
      "anonymous": false,
      "inputs": [
        {
          "indexed": false,
          "internalType": "uint8",
          "name": "newValue",
          "type": "uint8"
        },
        {
          "indexed": false,
          "internalType": "string",
          "name": "message",
          "type": "string"
        }
      ],
      "name": "Decreased",
      "type": "event"
    },
    {
      "anonymous": false,
      "inputs": [
        {
          "indexed": false,
          "internalType": "uint8",
          "name": "newValue",
          "type": "uint8"
        },
        {
          "indexed": false,
          "internalType": "string",
          "name": "message",
          "type": "string"
        }
      ],
      "name": "Increased",
      "type": "event"
    },
    {
      "anonymous": false,
      "inputs": [
        {
          "indexed": false,
          "internalType": "uint8",
          "name": "newValue",
          "type": "uint8"
        },
        {
          "indexed": false,
          "internalType": "string",
          "name": "message",
          "type": "string"
        }
      ],
      "name": "ValueSet",
      "type": "event"
    },
    {
      "inputs": [],
      "name": "myValue",
      "outputs": [
        {
          "internalType": "uint8",
          "name": "",
          "type": "uint8"
        }
      ],
      "stateMutability": "view",
      "type": "function"
    },
    {
      "inputs": [],
      "name": "increase",
      "outputs": [],
      "stateMutability": "nonpayable",
      "type": "function"
    },
    {
      "inputs": [],
      "name": "decrease",
      "outputs": [],
      "stateMutability": "nonpayable",
      "type": "function"
    },
    {
      "inputs": [
        {
          "internalType": "uint8",
          "name": "newValue",
          "type": "uint8"
        }
      ],
      "name": "setValue",
      "outputs": [],
      "stateMutability": "nonpayable",
      "type": "function"
    }
  ],
  "bytecode": "0x608060405234801561001057600080fd5b506104fc806100206000396000f3fe608060405234801561001057600080fd5b506004361061004c5760003560e01c806347f1aae7146100515780634c111ff81461006f578063d732d9551461008b578063e8927fbc14610095575b600080fd5b61005961009f565b6040516100669190610227565b60405180910390f35b61008960048036038101906100849190610273565b6100b0565b005b610093610111565b005b61009d61018e565b005b60008054906101000a900460ff1681565b806000806101000a81548160ff021916908360ff1602179055507f59144c42d01925194e77b7b7295ac04f0b740b4190cd10bb328eb8b8e0b58af660008054906101000a900460ff166040516101069190610323565b60405180910390a150565b60008081819054906101000a900460ff168092919061012f90610380565b91906101000a81548160ff021916908360ff160217905550507f59144c42d01925194e77b7b7295ac04f0b740b4190cd10bb328eb8b8e0b58af660008054906101000a900460ff1660405161018491906103f5565b60405180910390a1565b60008081819054906101000a900460ff16809291906101ac90610423565b91906101000a81548160ff021916908360ff160217905550507f59144c42d01925194e77b7b7295ac04f0b740b4190cd10bb328eb8b8e0b58af660008054906101000a900460ff166040516102019190610498565b60405180910390a1565b600060ff82169050919050565b6102218161020b565b82525050565b600060208201905061023c6000830184610218565b92915050565b600080fd5b6102508161020b565b811461025b57600080fd5b50565b60008135905061026d81610247565b92915050565b60006020828403121561028957610288610242565b5b60006102978482850161025e565b91505092915050565b600082825260208201905092915050565b7f4d792056616c7565277320736574206e65772076616c75652077697468206e6560008201527f772076616c756500000000000000000000000000000000000000000000000000602082015250565b600061030d6027836102a0565b9150610318826102b1565b604082019050919050565b60006040820190506103386000830184610218565b818103602083015261034981610300565b905092915050565b7f4e487b7100000000000000000000000000000000000000000000000000000000600052601160045260246000fd5b600061038b8261020b565b91506000820361039e5761039d610351565b5b600182039050919050565b7f4d792056616c7565277320646563726561736564206279203100000000000000600082015250565b60006103df6019836102a0565b91506103ea826103a9565b602082019050919050565b600060408201905061040a6000830184610218565b818103602083015261041b816103d2565b905092915050565b600061042e8261020b565b915060ff820361044157610440610351565b5b600182019050919050565b7f4d792056616c7565277320696e63726561736564206279203100000000000000600082015250565b60006104826019836102a0565b915061048d8261044c565b602082019050919050565b60006040820190506104ad6000830184610218565b81810360208301526104be81610475565b90509291505056fea2646970667358221220ca66908cf9d2ade5e1463b4db533bbbae75801b0811863897e0f16509611696d64736f6c634300080d0033",
  "immutableReferences": {},
  "source": "// SPDX-License-Identifier: SEE LICENSE IN LICENSE\r\npragma solidity >=0.8.0;\r\n\r\ncontract HelloEvent {\r\n    uint8 public myValue;\r\n    event Increased (uint8 newValue, string message);\r\n    event Decreased (uint8 newValue, string message);\r\n    event ValueSet (uint8 newValue, string message);\r\n\r\n    function increase() public {\r\n        myValue++;\r\n        emit Increased(myValue, \"My Value's increased by 1\");\r\n    }\r\n\r\n    function decrease() public {\r\n        myValue--;\r\n        emit Increased(myValue, \"My Value's decreased by 1\");\r\n    }\r\n\r\n    function setValue(uint8 newValue) public {\r\n        myValue = newValue;\r\n        emit Increased(myValue, \"My Value's set new value with new value\");\r\n    }\r\n}",
  "sourcePath": "C:\\Users\\boype\\Documents\\Solidity\\HelloSolidity\\contracts\\HelloEvent.sol",
  "compiler": {
    "name": "solc",
    "version": "0.8.13+commit.abaa5c0e.Emscripten.clang"
  },
  "schemaVersion": "3.4.10",
  "updatedAt": "2022-11-07T04:55:18.305Z",
  "devdoc": {
    "kind": "dev",
    "methods": {},
    "version": 1
  },
  "userdoc": {
    "kind": "user",
    "methods": {},
    "version": 1
  }
}