{
  "contractName": "HelloEventWithOwner",
  "abi": [
    {
      "anonymous": false,
      "inputs": [
        {
          "indexed": false,
          "internalType": "uint8",
          "name": "newValue",
          "type": "uint8"
        },
        {
          "indexed": false,
          "internalType": "string",
          "name": "message",
          "type": "string"
        }
      ],
      "name": "Decreased",
      "type": "event"
    },
    {
      "anonymous": false,
      "inputs": [
        {
          "indexed": false,
          "internalType": "uint8",
          "name": "newValue",
          "type": "uint8"
        },
        {
          "indexed": false,
          "internalType": "string",
          "name": "message",
          "type": "string"
        }
      ],
      "name": "Increased",
      "type": "event"
    },
    {
      "anonymous": false,
      "inputs": [
        {
          "indexed": true,
          "internalType": "address",
          "name": "oldOwner",
          "type": "address"
        },
        {
          "indexed": true,
          "internalType": "address",
          "name": "newOwner",
          "type": "address"
        }
      ],
      "name": "OwnerSet",
      "type": "event"
    },
    {
      "anonymous": false,
      "inputs": [
        {
          "indexed": false,
          "internalType": "uint8",
          "name": "newValue",
          "type": "uint8"
        },
        {
          "indexed": false,
          "internalType": "string",
          "name": "message",
          "type": "string"
        }
      ],
      "name": "ValueSet",
      "type": "event"
    },
    {
      "inputs": [
        {
          "internalType": "address",
          "name": "newOwner",
          "type": "address"
        }
      ],
      "name": "changeOwner",
      "outputs": [],
      "stateMutability": "nonpayable",
      "type": "function"
    },
    {
      "inputs": [],
      "name": "getOwner",
      "outputs": [
        {
          "internalType": "address",
          "name": "",
          "type": "address"
        }
      ],
      "stateMutability": "view",
      "type": "function"
    },
    {
      "inputs": [],
      "name": "myValue",
      "outputs": [
        {
          "internalType": "uint8",
          "name": "",
          "type": "uint8"
        }
      ],
      "stateMutability": "view",
      "type": "function"
    },
    {
      "inputs": [],
      "name": "increase",
      "outputs": [],
      "stateMutability": "nonpayable",
      "type": "function"
    },
    {
      "inputs": [],
      "name": "decrease",
      "outputs": [],
      "stateMutability": "nonpayable",
      "type": "function"
    },
    {
      "inputs": [
        {
          "internalType": "uint8",
          "name": "newValue",
          "type": "uint8"
        }
      ],
      "name": "setValue",
      "outputs": [],
      "stateMutability": "nonpayable",
      "type": "function"
    }
  ],
  "bytecode": "0x608060405234801561001057600080fd5b50336000806101000a81548173ffffffffffffffffffffffffffffffffffffffff021916908373ffffffffffffffffffffffffffffffffffffffff16021790555060008054906101000a900473ffffffffffffffffffffffffffffffffffffffff1673ffffffffffffffffffffffffffffffffffffffff16600073ffffffffffffffffffffffffffffffffffffffff167f342827c97908e5e2f71151c08502a66d44b6f758e3ac2f1de95f02eb95f0a73560405160405180910390a361087a806100db6000396000f3fe608060405234801561001057600080fd5b50600436106100625760003560e01c806347f1aae7146100675780634c111ff814610085578063893d20e8146100a1578063a6f9dae1146100bf578063d732d955146100db578063e8927fbc146100e5575b600080fd5b61006f6100ef565b60405161007c9190610484565b60405180910390f35b61009f600480360381019061009a91906104d0565b610102565b005b6100a96101f4565b6040516100b6919061053e565b60405180910390f35b6100d960048036038101906100d49190610585565b61021d565b005b6100e3610368565b005b6100ed6103e8565b005b600060149054906101000a900460ff1681565b60008054906101000a900473ffffffffffffffffffffffffffffffffffffffff1673ffffffffffffffffffffffffffffffffffffffff163373ffffffffffffffffffffffffffffffffffffffff1614610190576040517f08c379a00000000000000000000000000000000000000000000000000000000081526004016101879061060f565b60405180910390fd5b80600060146101000a81548160ff021916908360ff1602179055507f59144c42d01925194e77b7b7295ac04f0b740b4190cd10bb328eb8b8e0b58af6600060149054906101000a900460ff166040516101e991906106a1565b60405180910390a150565b60008060009054906101000a900473ffffffffffffffffffffffffffffffffffffffff16905090565b60008054906101000a900473ffffffffffffffffffffffffffffffffffffffff1673ffffffffffffffffffffffffffffffffffffffff163373ffffffffffffffffffffffffffffffffffffffff16146102ab576040517f08c379a00000000000000000000000000000000000000000000000000000000081526004016102a29061060f565b60405180910390fd5b8073ffffffffffffffffffffffffffffffffffffffff1660008054906101000a900473ffffffffffffffffffffffffffffffffffffffff1673ffffffffffffffffffffffffffffffffffffffff167f342827c97908e5e2f71151c08502a66d44b6f758e3ac2f1de95f02eb95f0a73560405160405180910390a3806000806101000a81548173ffffffffffffffffffffffffffffffffffffffff021916908373ffffffffffffffffffffffffffffffffffffffff16021790555050565b6000601481819054906101000a900460ff1680929190610387906106fe565b91906101000a81548160ff021916908360ff160217905550507f59144c42d01925194e77b7b7295ac04f0b740b4190cd10bb328eb8b8e0b58af6600060149054906101000a900460ff166040516103de9190610773565b60405180910390a1565b6000601481819054906101000a900460ff1680929190610407906107a1565b91906101000a81548160ff021916908360ff160217905550507f59144c42d01925194e77b7b7295ac04f0b740b4190cd10bb328eb8b8e0b58af6600060149054906101000a900460ff1660405161045e9190610816565b60405180910390a1565b600060ff82169050919050565b61047e81610468565b82525050565b60006020820190506104996000830184610475565b92915050565b600080fd5b6104ad81610468565b81146104b857600080fd5b50565b6000813590506104ca816104a4565b92915050565b6000602082840312156104e6576104e561049f565b5b60006104f4848285016104bb565b91505092915050565b600073ffffffffffffffffffffffffffffffffffffffff82169050919050565b6000610528826104fd565b9050919050565b6105388161051d565b82525050565b6000602082019050610553600083018461052f565b92915050565b6105628161051d565b811461056d57600080fd5b50565b60008135905061057f81610559565b92915050565b60006020828403121561059b5761059a61049f565b5b60006105a984828501610570565b91505092915050565b600082825260208201905092915050565b7f43616c6c6572206973206e6f74206f776e657200000000000000000000000000600082015250565b60006105f96013836105b2565b9150610604826105c3565b602082019050919050565b60006020820190508181036000830152610628816105ec565b9050919050565b7f4d792056616c7565277320736574206e65772076616c75652077697468206e6560008201527f772076616c756500000000000000000000000000000000000000000000000000602082015250565b600061068b6027836105b2565b91506106968261062f565b604082019050919050565b60006040820190506106b66000830184610475565b81810360208301526106c78161067e565b905092915050565b7f4e487b7100000000000000000000000000000000000000000000000000000000600052601160045260246000fd5b600061070982610468565b91506000820361071c5761071b6106cf565b5b600182039050919050565b7f4d792056616c7565277320646563726561736564206279203100000000000000600082015250565b600061075d6019836105b2565b915061076882610727565b602082019050919050565b60006040820190506107886000830184610475565b818103602083015261079981610750565b905092915050565b60006107ac82610468565b915060ff82036107bf576107be6106cf565b5b600182019050919050565b7f4d792056616c7565277320696e63726561736564206279203100000000000000600082015250565b60006108006019836105b2565b915061080b826107ca565b602082019050919050565b600060408201905061082b6000830184610475565b818103602083015261083c816107f3565b90509291505056fea26469706673582212205b80a51d3bd5eee3278046fd21a41a9ce05988b27cbb1db5a2cb5e922d7d718364736f6c634300080d0033",
  "immutableReferences": {},
  "source": "// SPDX-License-Identifier: SEE LICENSE IN LICENSE\r\npragma solidity >=0.8.0;\r\nimport \"./Ownable.sol\";\r\ncontract HelloEventWithOwner is Ownable {\r\n    uint8 public myValue;\r\n    event Increased (uint8 newValue, string message);\r\n    event Decreased (uint8 newValue, string message);\r\n    event ValueSet (uint8 newValue, string message);\r\n\r\n    function increase() public {\r\n        myValue++;\r\n        emit Increased(myValue, \"My Value's increased by 1\");\r\n    }\r\n\r\n    function decrease() public {\r\n        myValue--;\r\n        emit Increased(myValue, \"My Value's decreased by 1\");\r\n    }\r\n\r\n    function setValue(uint8 newValue) public isOwner{\r\n        myValue = newValue;\r\n        emit Increased(myValue, \"My Value's set new value with new value\");\r\n    }\r\n}",
  "sourcePath": "C:\\Users\\boype\\Documents\\Solidity\\HelloSolidity\\contracts\\HelloEventWithOwner.sol",
  "compiler": {
    "name": "solc",
    "version": "0.8.13+commit.abaa5c0e.Emscripten.clang"
  },
  "schemaVersion": "3.4.10",
  "updatedAt": "2022-11-07T04:55:18.313Z",
  "devdoc": {
    "kind": "dev",
    "methods": {},
    "version": 1
  },
  "userdoc": {
    "kind": "user",
    "methods": {},
    "version": 1
  }
}