{
  "contractName": "SimpleLoan",
  "abi": [
    {
      "inputs": [],
      "stateMutability": "nonpayable",
      "type": "constructor"
    },
    {
      "anonymous": false,
      "inputs": [
        {
          "indexed": false,
          "internalType": "uint256",
          "name": "time",
          "type": "uint256"
        },
        {
          "indexed": false,
          "internalType": "uint256",
          "name": "amount",
          "type": "uint256"
        },
        {
          "indexed": false,
          "internalType": "uint256",
          "name": "interest",
          "type": "uint256"
        },
        {
          "indexed": false,
          "internalType": "address",
          "name": "borrower",
          "type": "address"
        }
      ],
      "name": "Borrowed",
      "type": "event"
    },
    {
      "anonymous": false,
      "inputs": [
        {
          "indexed": false,
          "internalType": "uint256",
          "name": "time",
          "type": "uint256"
        }
      ],
      "name": "ClosedDown",
      "type": "event"
    },
    {
      "anonymous": false,
      "inputs": [
        {
          "indexed": false,
          "internalType": "uint256",
          "name": "time",
          "type": "uint256"
        },
        {
          "indexed": false,
          "internalType": "address",
          "name": "borrower",
          "type": "address"
        }
      ],
      "name": "DebtCleared",
      "type": "event"
    },
    {
      "anonymous": false,
      "inputs": [
        {
          "indexed": false,
          "internalType": "uint256",
          "name": "time",
          "type": "uint256"
        },
        {
          "indexed": false,
          "internalType": "uint256",
          "name": "amount",
          "type": "uint256"
        },
        {
          "indexed": false,
          "internalType": "uint256",
          "name": "balance",
          "type": "uint256"
        }
      ],
      "name": "Deposited",
      "type": "event"
    },
    {
      "anonymous": false,
      "inputs": [
        {
          "indexed": false,
          "internalType": "uint256",
          "name": "time",
          "type": "uint256"
        },
        {
          "indexed": false,
          "internalType": "uint256",
          "name": "newRate",
          "type": "uint256"
        }
      ],
      "name": "InterestRateChanged",
      "type": "event"
    },
    {
      "anonymous": false,
      "inputs": [
        {
          "indexed": false,
          "internalType": "uint256",
          "name": "time",
          "type": "uint256"
        },
        {
          "indexed": false,
          "internalType": "uint256",
          "name": "amount",
          "type": "uint256"
        },
        {
          "indexed": false,
          "internalType": "uint256",
          "name": "remaining",
          "type": "uint256"
        },
        {
          "indexed": false,
          "internalType": "address",
          "name": "borrower",
          "type": "address"
        },
        {
          "indexed": false,
          "internalType": "uint256",
          "name": "period",
          "type": "uint256"
        }
      ],
      "name": "LatePaybacked",
      "type": "event"
    },
    {
      "anonymous": false,
      "inputs": [
        {
          "indexed": false,
          "internalType": "uint256",
          "name": "time",
          "type": "uint256"
        },
        {
          "indexed": false,
          "internalType": "uint256",
          "name": "amount",
          "type": "uint256"
        },
        {
          "indexed": false,
          "internalType": "uint256",
          "name": "remaining",
          "type": "uint256"
        },
        {
          "indexed": false,
          "internalType": "address",
          "name": "borrower",
          "type": "address"
        }
      ],
      "name": "Paybacked",
      "type": "event"
    },
    {
      "anonymous": false,
      "inputs": [
        {
          "indexed": false,
          "internalType": "uint256",
          "name": "time",
          "type": "uint256"
        },
        {
          "indexed": false,
          "internalType": "uint256",
          "name": "amount",
          "type": "uint256"
        }
      ],
      "name": "Withdrawn",
      "type": "event"
    },
    {
      "inputs": [],
      "name": "DEFAULT_INTEREST_DENOMINATOR",
      "outputs": [
        {
          "internalType": "uint256",
          "name": "",
          "type": "uint256"
        }
      ],
      "stateMutability": "view",
      "type": "function",
      "constant": true
    },
    {
      "inputs": [],
      "name": "DEFAULT_INTEREST_NUMERATOR",
      "outputs": [
        {
          "internalType": "uint256",
          "name": "",
          "type": "uint256"
        }
      ],
      "stateMutability": "view",
      "type": "function",
      "constant": true
    },
    {
      "inputs": [],
      "name": "PAYBACK_PERIOD",
      "outputs": [
        {
          "internalType": "uint256",
          "name": "",
          "type": "uint256"
        }
      ],
      "stateMutability": "view",
      "type": "function",
      "constant": true
    },
    {
      "inputs": [
        {
          "internalType": "uint256",
          "name": "",
          "type": "uint256"
        }
      ],
      "name": "borrowers",
      "outputs": [
        {
          "internalType": "address",
          "name": "",
          "type": "address"
        }
      ],
      "stateMutability": "view",
      "type": "function",
      "constant": true
    },
    {
      "inputs": [
        {
          "internalType": "address",
          "name": "",
          "type": "address"
        }
      ],
      "name": "debts",
      "outputs": [
        {
          "internalType": "uint256",
          "name": "balance",
          "type": "uint256"
        },
        {
          "internalType": "uint256",
          "name": "lastBorrowed",
          "type": "uint256"
        }
      ],
      "stateMutability": "view",
      "type": "function",
      "constant": true
    },
    {
      "inputs": [],
      "name": "interestRateDenominator",
      "outputs": [
        {
          "internalType": "uint256",
          "name": "",
          "type": "uint256"
        }
      ],
      "stateMutability": "view",
      "type": "function",
      "constant": true
    },
    {
      "inputs": [],
      "name": "interestRateNumerator",
      "outputs": [
        {
          "internalType": "uint256",
          "name": "",
          "type": "uint256"
        }
      ],
      "stateMutability": "view",
      "type": "function",
      "constant": true
    },
    {
      "inputs": [],
      "name": "deposit",
      "outputs": [],
      "stateMutability": "payable",
      "type": "function",
      "payable": true
    },
    {
      "inputs": [
        {
          "internalType": "uint256",
          "name": "numerator",
          "type": "uint256"
        }
      ],
      "name": "setInterestRate",
      "outputs": [],
      "stateMutability": "nonpayable",
      "type": "function"
    },
    {
      "inputs": [
        {
          "internalType": "uint256",
          "name": "amount",
          "type": "uint256"
        }
      ],
      "name": "borrow",
      "outputs": [],
      "stateMutability": "nonpayable",
      "type": "function"
    },
    {
      "inputs": [],
      "name": "payback",
      "outputs": [],
      "stateMutability": "payable",
      "type": "function",
      "payable": true
    },
    {
      "inputs": [
        {
          "internalType": "uint256",
          "name": "amount",
          "type": "uint256"
        }
      ],
      "name": "withdraw",
      "outputs": [],
      "stateMutability": "nonpayable",
      "type": "function"
    },
    {
      "inputs": [],
      "name": "closeDown",
      "outputs": [],
      "stateMutability": "nonpayable",
      "type": "function"
    }
  ],
  "bytecode": "0x608060405234801561001057600080fd5b50336000806101000a81548173ffffffffffffffffffffffffffffffffffffffff021916908373ffffffffffffffffffffffffffffffffffffffff1602179055506001600281905550600a6003819055506001600560006101000a81548160ff021916908315150217905550611a108061008b6000396000f3fe6080604052600436106100c25760003560e01c80635cb0a2151161007f578063854bec8711610059578063854bec8714610257578063c5ebeaec14610261578063d0e30db01461028a578063e96069d514610294576100c2565b80635cb0a215146101c65780635f84f302146101f15780637924d93f1461021a576100c2565b80631c00d1c2146100c75780632e1a7d4d146100f25780632ecd4e7d1461011b57806345f131001461015957806355ffe2a0146101845780635a4362e5146101af575b600080fd5b3480156100d357600080fd5b506100dc6102bf565b6040516100e9919061120a565b60405180910390f35b3480156100fe57600080fd5b5061011960048036038101906101149190611256565b6102c6565b005b34801561012757600080fd5b50610142600480360381019061013d91906112e1565b610489565b60405161015092919061130e565b60405180910390f35b34801561016557600080fd5b5061016e6104ad565b60405161017b919061120a565b60405180910390f35b34801561019057600080fd5b506101996104b2565b6040516101a6919061120a565b60405180910390f35b3480156101bb57600080fd5b506101c46104b8565b005b3480156101d257600080fd5b506101db610668565b6040516101e8919061120a565b60405180910390f35b3480156101fd57600080fd5b5061021860048036038101906102139190611256565b61066d565b005b34801561022657600080fd5b50610241600480360381019061023c9190611256565b6107d8565b60405161024e9190611346565b60405180910390f35b61025f610817565b005b34801561026d57600080fd5b5061028860048036038101906102839190611256565b610d3e565b005b6102926110d1565b005b3480156102a057600080fd5b506102a96111eb565b6040516102b6919061120a565b60405180910390f35b62093a8081565b60008054906101000a900473ffffffffffffffffffffffffffffffffffffffff1673ffffffffffffffffffffffffffffffffffffffff163373ffffffffffffffffffffffffffffffffffffffff1614610354576040517f08c379a000000000000000000000000000000000000000000000000000000000815260040161034b906113be565b60405180910390fd5b600560009054906101000a900460ff166103a3576040517f08c379a000000000000000000000000000000000000000000000000000000000815260040161039a9061142a565b60405180910390fd5b478111156103e6576040517f08c379a00000000000000000000000000000000000000000000000000000000081526004016103dd90611496565b60405180910390fd5b60008054906101000a900473ffffffffffffffffffffffffffffffffffffffff1673ffffffffffffffffffffffffffffffffffffffff166108fc829081150290604051600060405180830381858888f1935050505015801561044c573d6000803e3d6000fd5b507f0c875c8d391179c5cf7ad8303d268efd50b8beb78b671f85cd54bfb91eb8ef40428260405161047e92919061130e565b60405180910390a150565b60016020528060005260406000206000915090508060000154908060010154905082565b600a81565b60035481565b60008054906101000a900473ffffffffffffffffffffffffffffffffffffffff1673ffffffffffffffffffffffffffffffffffffffff163373ffffffffffffffffffffffffffffffffffffffff1614610546576040517f08c379a000000000000000000000000000000000000000000000000000000000815260040161053d906113be565b60405180910390fd5b600560009054906101000a900460ff16610595576040517f08c379a000000000000000000000000000000000000000000000000000000000815260040161058c9061142a565b60405180910390fd5b6000600480549050146105dd576040517f08c379a00000000000000000000000000000000000000000000000000000000081526004016105d490611528565b60405180910390fd5b6000600560006101000a81548160ff0219169083151502179055507f445f40d7036a39a53d5b99242bad06cc83dedd86210f42b498d96bd0926ef4a842604051610627919061120a565b60405180910390a160008054906101000a900473ffffffffffffffffffffffffffffffffffffffff1673ffffffffffffffffffffffffffffffffffffffff16ff5b600181565b60008054906101000a900473ffffffffffffffffffffffffffffffffffffffff1673ffffffffffffffffffffffffffffffffffffffff163373ffffffffffffffffffffffffffffffffffffffff16146106fb576040517f08c379a00000000000000000000000000000000000000000000000000000000081526004016106f2906113be565b60405180910390fd5b600560009054906101000a900460ff1661074a576040517f08c379a00000000000000000000000000000000000000000000000000000000081526004016107419061142a565b60405180910390fd5b6000811161078d576040517f08c379a000000000000000000000000000000000000000000000000000000000815260040161078490611594565b60405180910390fd5b8060028190555060646003819055507ff93ce1b2e2cb74b524760dff1842e28b944e9c40627c07348a36c404be739c0242826040516107cd92919061130e565b60405180910390a150565b600481815481106107e857600080fd5b906000526020600020016000915054906101000a900473ffffffffffffffffffffffffffffffffffffffff1681565b60008054906101000a900473ffffffffffffffffffffffffffffffffffffffff1673ffffffffffffffffffffffffffffffffffffffff163373ffffffffffffffffffffffffffffffffffffffff16036108a5576040517f08c379a000000000000000000000000000000000000000000000000000000000815260040161089c90611600565b60405180910390fd5b600560009054906101000a900460ff166108f4576040517f08c379a00000000000000000000000000000000000000000000000000000000081526004016108eb9061142a565b60405180910390fd5b600160003373ffffffffffffffffffffffffffffffffffffffff1673ffffffffffffffffffffffffffffffffffffffff16815260200190815260200160002060000154341115610979576040517f08c379a00000000000000000000000000000000000000000000000000000000081526004016109709061166c565b60405180910390fd5b34600160003373ffffffffffffffffffffffffffffffffffffffff1673ffffffffffffffffffffffffffffffffffffffff16815260200190815260200160002060000160008282546109cb91906116bb565b9250508190555062093a80600160003373ffffffffffffffffffffffffffffffffffffffff1673ffffffffffffffffffffffffffffffffffffffff1681526020019081526020016000206001015442610a2491906116bb565b1015610aae577f01cc4a5b4b7296e86c48d414286509d7cd8c31131f816dcd54164066421fd36f4234600160003373ffffffffffffffffffffffffffffffffffffffff1673ffffffffffffffffffffffffffffffffffffffff1681526020019081526020016000206000015433604051610aa194939291906116ef565b60405180910390a1610b8b565b7fb03fae49188cc9ffc931e7694517894fc83fbf44cb6dc766b2dbeacde71f8c504234600160003373ffffffffffffffffffffffffffffffffffffffff1673ffffffffffffffffffffffffffffffffffffffff168152602001908152602001600020600001543362093a80600160003373ffffffffffffffffffffffffffffffffffffffff1673ffffffffffffffffffffffffffffffffffffffff1681526020019081526020016000206001015442610b6791906116bb565b610b7191906116bb565b604051610b82959493929190611734565b60405180910390a15b6000600160003373ffffffffffffffffffffffffffffffffffffffff1673ffffffffffffffffffffffffffffffffffffffff1681526020019081526020016000206000015403610d3c5760005b600480549050811015610d3a573373ffffffffffffffffffffffffffffffffffffffff1660048281548110610c1057610c0f611787565b5b9060005260206000200160009054906101000a900473ffffffffffffffffffffffffffffffffffffffff1673ffffffffffffffffffffffffffffffffffffffff1603610d275760048181548110610c6a57610c69611787565b5b9060005260206000200160006101000a81549073ffffffffffffffffffffffffffffffffffffffff0219169055600160003373ffffffffffffffffffffffffffffffffffffffff1673ffffffffffffffffffffffffffffffffffffffff168152602001908152602001600020600080820160009055600182016000905550507f2ef4d4a343c4e0bf5bebe0d1900f23c1cf439484b3d1e4ad220f636ce3e7f65d4233604051610d1a9291906117b6565b60405180910390a1610d3a565b8080610d32906117df565b915050610bd8565b505b565b60008054906101000a900473ffffffffffffffffffffffffffffffffffffffff1673ffffffffffffffffffffffffffffffffffffffff163373ffffffffffffffffffffffffffffffffffffffff1603610dcc576040517f08c379a0000000000000000000000000000000000000000000000000000000008152600401610dc390611600565b60405180910390fd5b600560009054906101000a900460ff16610e1b576040517f08c379a0000000000000000000000000000000000000000000000000000000008152600401610e129061142a565b60405180910390fd5b80471015610e5e576040517f08c379a0000000000000000000000000000000000000000000000000000000008152600401610e5590611873565b60405180910390fd5b600060035460025483610e719190611893565b610e7b919061191c565b905060008183610e8b919061194d565b90506000600160003373ffffffffffffffffffffffffffffffffffffffff1673ffffffffffffffffffffffffffffffffffffffff1681526020019081526020016000206000015403610fa8576004339080600181540180825580915050600190039060005260206000200160009091909190916101000a81548173ffffffffffffffffffffffffffffffffffffffff021916908373ffffffffffffffffffffffffffffffffffffffff1602179055506040518060400160405280600081526020016000815250600160003373ffffffffffffffffffffffffffffffffffffffff1673ffffffffffffffffffffffffffffffffffffffff16815260200190815260200160002060008201518160000155602082015181600101559050505b80600160003373ffffffffffffffffffffffffffffffffffffffff1673ffffffffffffffffffffffffffffffffffffffff1681526020019081526020016000206000016000828254610ffa919061194d565b9250508190555042600160003373ffffffffffffffffffffffffffffffffffffffff1673ffffffffffffffffffffffffffffffffffffffff168152602001908152602001600020600101819055503373ffffffffffffffffffffffffffffffffffffffff166108fc849081150290604051600060405180830381858888f1935050505015801561108e573d6000803e3d6000fd5b507ff163e724c8c911d5c1534a78dd7ea6cfe7417aceb6db4bc97f752ce7e8c1b147428484336040516110c494939291906116ef565b60405180910390a1505050565b60008054906101000a900473ffffffffffffffffffffffffffffffffffffffff1673ffffffffffffffffffffffffffffffffffffffff163373ffffffffffffffffffffffffffffffffffffffff161461115f576040517f08c379a0000000000000000000000000000000000000000000000000000000008152600401611156906113be565b60405180910390fd5b600560009054906101000a900460ff166111ae576040517f08c379a00000000000000000000000000000000000000000000000000000000081526004016111a59061142a565b60405180910390fd5b7f1ca606821992e3b34613b5b29c0bbade3a907b2969d7f9f2927f726fa4baccfb4234476040516111e1939291906119a3565b60405180910390a1565b60025481565b6000819050919050565b611204816111f1565b82525050565b600060208201905061121f60008301846111fb565b92915050565b600080fd5b611233816111f1565b811461123e57600080fd5b50565b6000813590506112508161122a565b92915050565b60006020828403121561126c5761126b611225565b5b600061127a84828501611241565b91505092915050565b600073ffffffffffffffffffffffffffffffffffffffff82169050919050565b60006112ae82611283565b9050919050565b6112be816112a3565b81146112c957600080fd5b50565b6000813590506112db816112b5565b92915050565b6000602082840312156112f7576112f6611225565b5b6000611305848285016112cc565b91505092915050565b600060408201905061132360008301856111fb565b61133060208301846111fb565b9392505050565b611340816112a3565b82525050565b600060208201905061135b6000830184611337565b92915050565b600082825260208201905092915050565b7f4f6e6c79206f776e657220616c6c6f7765640000000000000000000000000000600082015250565b60006113a8601283611361565b91506113b382611372565b602082019050919050565b600060208201905081810360008301526113d78161139b565b9050919050565b7f436f6e7472616374206973206e6f742061637469766500000000000000000000600082015250565b6000611414601683611361565b915061141f826113de565b602082019050919050565b6000602082019050818103600083015261144381611407565b9050919050565b7f4e6f7420656e6f756768742062616c616e636500000000000000000000000000600082015250565b6000611480601383611361565b915061148b8261144a565b602082019050919050565b600060208201905081810360008301526114af81611473565b9050919050565b7f43616e6e6f7420636c6f736520647565206578697374696e6720626f72726f7760008201527f6572730000000000000000000000000000000000000000000000000000000000602082015250565b6000611512602383611361565b915061151d826114b6565b604082019050919050565b6000602082019050818103600083015261154181611505565b9050919050565b7f496e76616c696420696e74657265737420726174650000000000000000000000600082015250565b600061157e601583611361565b915061158982611548565b602082019050919050565b600060208201905081810360008301526115ad81611571565b9050919050565b7f4f776e6572206e6f7420616c6c6f776564000000000000000000000000000000600082015250565b60006115ea601183611361565b91506115f5826115b4565b602082019050919050565b60006020820190508181036000830152611619816115dd565b9050919050565b7f4f76657270616964206e6f7420616c6c6f776564000000000000000000000000600082015250565b6000611656601483611361565b915061166182611620565b602082019050919050565b6000602082019050818103600083015261168581611649565b9050919050565b7f4e487b7100000000000000000000000000000000000000000000000000000000600052601160045260246000fd5b60006116c6826111f1565b91506116d1836111f1565b9250828210156116e4576116e361168c565b5b828203905092915050565b600060808201905061170460008301876111fb565b61171160208301866111fb565b61171e60408301856111fb565b61172b6060830184611337565b95945050505050565b600060a08201905061174960008301886111fb565b61175660208301876111fb565b61176360408301866111fb565b6117706060830185611337565b61177d60808301846111fb565b9695505050505050565b7f4e487b7100000000000000000000000000000000000000000000000000000000600052603260045260246000fd5b60006040820190506117cb60008301856111fb565b6117d86020830184611337565b9392505050565b60006117ea826111f1565b91507fffffffffffffffffffffffffffffffffffffffffffffffffffffffffffffffff820361181c5761181b61168c565b5b600182019050919050565b7f4e6f7420656e6f7567682062616c616e63650000000000000000000000000000600082015250565b600061185d601283611361565b915061186882611827565b602082019050919050565b6000602082019050818103600083015261188c81611850565b9050919050565b600061189e826111f1565b91506118a9836111f1565b9250817fffffffffffffffffffffffffffffffffffffffffffffffffffffffffffffffff04831182151516156118e2576118e161168c565b5b828202905092915050565b7f4e487b7100000000000000000000000000000000000000000000000000000000600052601260045260246000fd5b6000611927826111f1565b9150611932836111f1565b925082611942576119416118ed565b5b828204905092915050565b6000611958826111f1565b9150611963836111f1565b9250827fffffffffffffffffffffffffffffffffffffffffffffffffffffffffffffffff038211156119985761199761168c565b5b828201905092915050565b60006060820190506119b860008301866111fb565b6119c560208301856111fb565b6119d260408301846111fb565b94935050505056fea2646970667358221220b9ac10da20c9a8005cb8be44f63850733417663002ec90091ec907cb35196d8464736f6c634300080d0033",
  "immutableReferences": {},
  "source": "// SPDX-License-Identifier: MIT\r\npragma solidity >=0.8.0;\r\n\r\ncontract SimpleLoan {\r\n    address payable owner;\r\n    struct DebtInfo {\r\n        uint balance;\r\n        uint lastBorrowed; //Collect time of last borrowing (block.timestamp)\r\n    }\r\n    mapping(address => DebtInfo) public debts; //Debt Table\r\n    uint public interestRateNumerator;\r\n    uint public interestRateDenominator;\r\n    uint public constant DEFAULT_INTEREST_NUMERATOR = 1;\r\n    uint public constant DEFAULT_INTEREST_DENOMINATOR = 10;\r\n    uint public constant PAYBACK_PERIOD = 60 * 60 * 24 * 7; // 7 Days\r\n\r\n    address[] public borrowers;\r\n    bool active;\r\n\r\n    constructor(){\r\n        owner = payable(msg.sender);\r\n        interestRateNumerator = DEFAULT_INTEREST_NUMERATOR;\r\n        interestRateDenominator = DEFAULT_INTEREST_DENOMINATOR;\r\n        active = true;\r\n    }\r\n\r\n    modifier onlyOwner {\r\n        require(msg.sender == owner, \"Only owner allowed\");\r\n        _;\r\n    }\r\n\r\n    modifier notAnOwner {\r\n        require(msg.sender != owner, \"Owner not allowed\");\r\n        _;\r\n    }\r\n\r\n    modifier whenActive {\r\n        require(active, \"Contract is not active\");\r\n        _;\r\n    }\r\n\r\n    event Deposited(uint time, uint amount, uint balance);\r\n\r\n    function deposit() public payable onlyOwner whenActive {\r\n        emit Deposited(block.timestamp, msg.value, address(this).balance);\r\n    }\r\n\r\n    event InterestRateChanged(uint time, uint newRate);\r\n\r\n    function setInterestRate(uint numerator) public onlyOwner whenActive {\r\n        require (numerator > 0, \"Invalid interest rate\");\r\n        interestRateNumerator = numerator;\r\n        interestRateDenominator = 100;\r\n        emit InterestRateChanged(block.timestamp, numerator);\r\n    }\r\n\r\n    event Borrowed(uint time, uint amount, uint interest, address borrower);\r\n\r\n    function borrow(uint amount) external notAnOwner whenActive {\r\n        require(address(this).balance >= amount, \"Not enough balance\");\r\n        uint interest = (amount * interestRateNumerator / interestRateDenominator);\r\n        uint debt = amount + interest;\r\n        if(debts[msg.sender].balance == 0){\r\n            borrowers.push(msg.sender);\r\n            debts[msg.sender] = DebtInfo(0,0);\r\n        }\r\n        debts[msg.sender].balance += debt;\r\n        debts[msg.sender].lastBorrowed = block.timestamp;\r\n        payable(msg.sender).transfer(amount);\r\n        emit Borrowed(block.timestamp, amount, interest, msg.sender);\r\n    }\r\n    event Paybacked(uint time, uint amount, uint remaining, address borrower);\r\n    event LatePaybacked(uint time, uint amount, uint remaining, address borrower, uint period);\r\n    event DebtCleared(uint time, address borrower);\r\n    function payback() external payable notAnOwner whenActive {\r\n        require(msg.value <= debts[msg.sender].balance, \"Overpaid not allowed\");\r\n        debts[msg.sender].balance -= msg.value;\r\n        if(block.timestamp - debts[msg.sender].lastBorrowed < PAYBACK_PERIOD){\r\n            emit Paybacked(block.timestamp, msg.value, debts[msg.sender].balance, msg.sender);\r\n        }\r\n        else {\r\n            emit LatePaybacked(block.timestamp, msg.value, debts[msg.sender].balance, msg.sender, \r\n                block.timestamp - debts[msg.sender].lastBorrowed - PAYBACK_PERIOD);\r\n        }\r\n        if(debts[msg.sender].balance == 0){\r\n            for(uint i = 0; i < borrowers.length; i++){\r\n                if(borrowers[i] == msg.sender){\r\n                    delete borrowers[i];\r\n                    delete debts[msg.sender];\r\n                    emit DebtCleared(block.timestamp, msg.sender);\r\n                    break;\r\n                }\r\n            }\r\n        }\r\n    }\r\n\r\n    event Withdrawn(uint time, uint amount);\r\n    function withdraw(uint amount) external onlyOwner whenActive {\r\n        require(amount <= address(this).balance, \"Not enought balance\");\r\n        owner.transfer(amount);\r\n        emit Withdrawn(block.timestamp, amount);\r\n    }\r\n    event ClosedDown(uint time);\r\n    function closeDown() external onlyOwner whenActive {\r\n        require(borrowers.length == 0, \"Cannot close due existing borrowers\");\r\n        active = false;\r\n        emit ClosedDown(block.timestamp);\r\n        selfdestruct(owner);\r\n    }\r\n}",
  "sourcePath": "C:\\Users\\boype\\Documents\\Solidity\\HelloSolidity\\contracts\\SimpleLoan.sol",
  "compiler": {
    "name": "solc",
    "version": "0.8.13+commit.abaa5c0e.Emscripten.clang"
  },
  "schemaVersion": "3.4.10",
  "updatedAt": "2022-11-07T04:55:23.594Z",
  "networkType": "ethereum",
  "devdoc": {
    "kind": "dev",
    "methods": {},
    "version": 1
  },
  "userdoc": {
    "kind": "user",
    "methods": {},
    "version": 1
  }
}