{
  "contractName": "SimpleLoan",
  "abi": [
    {
      "inputs": [],
      "stateMutability": "nonpayable",
      "type": "constructor"
    },
    {
      "anonymous": false,
      "inputs": [
        {
          "indexed": false,
          "internalType": "uint256",
          "name": "time",
          "type": "uint256"
        },
        {
          "indexed": false,
          "internalType": "uint256",
          "name": "amount",
          "type": "uint256"
        },
        {
          "indexed": false,
          "internalType": "uint256",
          "name": "interest",
          "type": "uint256"
        },
        {
          "indexed": false,
          "internalType": "address",
          "name": "borrower",
          "type": "address"
        }
      ],
      "name": "Borrowed",
      "type": "event"
    },
    {
      "anonymous": false,
      "inputs": [
        {
          "indexed": false,
          "internalType": "uint256",
          "name": "time",
          "type": "uint256"
        }
      ],
      "name": "ClosedDown",
      "type": "event"
    },
    {
      "anonymous": false,
      "inputs": [
        {
          "indexed": false,
          "internalType": "uint256",
          "name": "time",
          "type": "uint256"
        },
        {
          "indexed": false,
          "internalType": "address",
          "name": "borrower",
          "type": "address"
        }
      ],
      "name": "DebtCleared",
      "type": "event"
    },
    {
      "anonymous": false,
      "inputs": [
        {
          "indexed": false,
          "internalType": "uint256",
          "name": "time",
          "type": "uint256"
        },
        {
          "indexed": false,
          "internalType": "uint256",
          "name": "amount",
          "type": "uint256"
        },
        {
          "indexed": false,
          "internalType": "uint256",
          "name": "balance",
          "type": "uint256"
        }
      ],
      "name": "Deposited",
      "type": "event"
    },
    {
      "anonymous": false,
      "inputs": [
        {
          "indexed": false,
          "internalType": "uint256",
          "name": "time",
          "type": "uint256"
        },
        {
          "indexed": false,
          "internalType": "uint256",
          "name": "newRate",
          "type": "uint256"
        }
      ],
      "name": "InterestRateChanged",
      "type": "event"
    },
    {
      "anonymous": false,
      "inputs": [
        {
          "indexed": false,
          "internalType": "uint256",
          "name": "time",
          "type": "uint256"
        },
        {
          "indexed": false,
          "internalType": "uint256",
          "name": "amount",
          "type": "uint256"
        },
        {
          "indexed": false,
          "internalType": "uint256",
          "name": "remaining",
          "type": "uint256"
        },
        {
          "indexed": false,
          "internalType": "address",
          "name": "borrower",
          "type": "address"
        },
        {
          "indexed": false,
          "internalType": "uint256",
          "name": "period",
          "type": "uint256"
        }
      ],
      "name": "LatePaybacked",
      "type": "event"
    },
    {
      "anonymous": false,
      "inputs": [
        {
          "indexed": false,
          "internalType": "uint256",
          "name": "time",
          "type": "uint256"
        },
        {
          "indexed": false,
          "internalType": "uint256",
          "name": "amount",
          "type": "uint256"
        },
        {
          "indexed": false,
          "internalType": "uint256",
          "name": "remaining",
          "type": "uint256"
        },
        {
          "indexed": false,
          "internalType": "address",
          "name": "borrower",
          "type": "address"
        }
      ],
      "name": "Paybacked",
      "type": "event"
    },
    {
      "anonymous": false,
      "inputs": [
        {
          "indexed": false,
          "internalType": "uint256",
          "name": "time",
          "type": "uint256"
        },
        {
          "indexed": false,
          "internalType": "uint256",
          "name": "amount",
          "type": "uint256"
        }
      ],
      "name": "Withdrawn",
      "type": "event"
    },
    {
      "inputs": [],
      "name": "DEFAULT_INTEREST_DENOMINATOR",
      "outputs": [
        {
          "internalType": "uint256",
          "name": "",
          "type": "uint256"
        }
      ],
      "stateMutability": "view",
      "type": "function",
      "constant": true
    },
    {
      "inputs": [],
      "name": "DEFAULT_INTEREST_NUMERATOR",
      "outputs": [
        {
          "internalType": "uint256",
          "name": "",
          "type": "uint256"
        }
      ],
      "stateMutability": "view",
      "type": "function",
      "constant": true
    },
    {
      "inputs": [],
      "name": "PAYBACK_PERIOD",
      "outputs": [
        {
          "internalType": "uint256",
          "name": "",
          "type": "uint256"
        }
      ],
      "stateMutability": "view",
      "type": "function",
      "constant": true
    },
    {
      "inputs": [
        {
          "internalType": "uint256",
          "name": "",
          "type": "uint256"
        }
      ],
      "name": "borrowers",
      "outputs": [
        {
          "internalType": "address",
          "name": "",
          "type": "address"
        }
      ],
      "stateMutability": "view",
      "type": "function",
      "constant": true
    },
    {
      "inputs": [
        {
          "internalType": "address",
          "name": "",
          "type": "address"
        }
      ],
      "name": "debts",
      "outputs": [
        {
          "internalType": "uint256",
          "name": "balance",
          "type": "uint256"
        },
        {
          "internalType": "uint256",
          "name": "lastBorrowed",
          "type": "uint256"
        }
      ],
      "stateMutability": "view",
      "type": "function",
      "constant": true
    },
    {
      "inputs": [],
      "name": "interestRateDenominator",
      "outputs": [
        {
          "internalType": "uint256",
          "name": "",
          "type": "uint256"
        }
      ],
      "stateMutability": "view",
      "type": "function",
      "constant": true
    },
    {
      "inputs": [],
      "name": "interestRateNumerator",
      "outputs": [
        {
          "internalType": "uint256",
          "name": "",
          "type": "uint256"
        }
      ],
      "stateMutability": "view",
      "type": "function",
      "constant": true
    },
    {
      "inputs": [],
      "name": "getBorrowers",
      "outputs": [
        {
          "internalType": "address[]",
          "name": "",
          "type": "address[]"
        }
      ],
      "stateMutability": "view",
      "type": "function",
      "constant": true
    },
    {
      "inputs": [
        {
          "internalType": "address",
          "name": "borrower",
          "type": "address"
        }
      ],
      "name": "getDebt",
      "outputs": [
        {
          "internalType": "uint256",
          "name": "",
          "type": "uint256"
        }
      ],
      "stateMutability": "view",
      "type": "function",
      "constant": true
    },
    {
      "inputs": [],
      "name": "deposit",
      "outputs": [],
      "stateMutability": "payable",
      "type": "function",
      "payable": true
    },
    {
      "inputs": [
        {
          "internalType": "uint256",
          "name": "numerator",
          "type": "uint256"
        }
      ],
      "name": "setInterestRate",
      "outputs": [],
      "stateMutability": "nonpayable",
      "type": "function"
    },
    {
      "inputs": [
        {
          "internalType": "uint256",
          "name": "amount",
          "type": "uint256"
        }
      ],
      "name": "borrow",
      "outputs": [],
      "stateMutability": "nonpayable",
      "type": "function"
    },
    {
      "inputs": [],
      "name": "payback",
      "outputs": [],
      "stateMutability": "payable",
      "type": "function",
      "payable": true
    },
    {
      "inputs": [
        {
          "internalType": "uint256",
          "name": "amount",
          "type": "uint256"
        }
      ],
      "name": "withdraw",
      "outputs": [],
      "stateMutability": "nonpayable",
      "type": "function"
    },
    {
      "inputs": [],
      "name": "closeDown",
      "outputs": [],
      "stateMutability": "nonpayable",
      "type": "function"
    }
  ],
  "bytecode": "0x608060405234801561001057600080fd5b50336000806101000a81548173ffffffffffffffffffffffffffffffffffffffff021916908373ffffffffffffffffffffffffffffffffffffffff1602179055506001600281905550600a6003819055506001600560006101000a81548160ff021916908315150217905550611c588061008b6000396000f3fe6080604052600436106100e85760003560e01c80635f84f3021161008a5780639a78e72e116100595780639a78e72e146102b2578063c5ebeaec146102ef578063d0e30db014610318578063e96069d514610322576100e8565b80635f84f302146102175780636854786a146102405780637924d93f1461026b578063854bec87146102a8576100e8565b806345f13100116100c657806345f131001461017f57806355ffe2a0146101aa5780635a4362e5146101d55780635cb0a215146101ec576100e8565b80631c00d1c2146100ed5780632e1a7d4d146101185780632ecd4e7d14610141575b600080fd5b3480156100f957600080fd5b5061010261034d565b60405161010f9190611372565b60405180910390f35b34801561012457600080fd5b5061013f600480360381019061013a91906113be565b610354565b005b34801561014d57600080fd5b5061016860048036038101906101639190611449565b610517565b604051610176929190611476565b60405180910390f35b34801561018b57600080fd5b5061019461053b565b6040516101a19190611372565b60405180910390f35b3480156101b657600080fd5b506101bf610540565b6040516101cc9190611372565b60405180910390f35b3480156101e157600080fd5b506101ea610546565b005b3480156101f857600080fd5b506102016106f6565b60405161020e9190611372565b60405180910390f35b34801561022357600080fd5b5061023e600480360381019061023991906113be565b6106fb565b005b34801561024c57600080fd5b50610255610866565b604051610262919061155d565b60405180910390f35b34801561027757600080fd5b50610292600480360381019061028d91906113be565b6108f4565b60405161029f919061158e565b60405180910390f35b6102b0610933565b005b3480156102be57600080fd5b506102d960048036038101906102d49190611449565b610e5a565b6040516102e69190611372565b60405180910390f35b3480156102fb57600080fd5b50610316600480360381019061031191906113be565b610ea6565b005b610320611239565b005b34801561032e57600080fd5b50610337611353565b6040516103449190611372565b60405180910390f35b62093a8081565b60008054906101000a900473ffffffffffffffffffffffffffffffffffffffff1673ffffffffffffffffffffffffffffffffffffffff163373ffffffffffffffffffffffffffffffffffffffff16146103e2576040517f08c379a00000000000000000000000000000000000000000000000000000000081526004016103d990611606565b60405180910390fd5b600560009054906101000a900460ff16610431576040517f08c379a000000000000000000000000000000000000000000000000000000000815260040161042890611672565b60405180910390fd5b47811115610474576040517f08c379a000000000000000000000000000000000000000000000000000000000815260040161046b906116de565b60405180910390fd5b60008054906101000a900473ffffffffffffffffffffffffffffffffffffffff1673ffffffffffffffffffffffffffffffffffffffff166108fc829081150290604051600060405180830381858888f193505050501580156104da573d6000803e3d6000fd5b507f0c875c8d391179c5cf7ad8303d268efd50b8beb78b671f85cd54bfb91eb8ef40428260405161050c929190611476565b60405180910390a150565b60016020528060005260406000206000915090508060000154908060010154905082565b600a81565b60035481565b60008054906101000a900473ffffffffffffffffffffffffffffffffffffffff1673ffffffffffffffffffffffffffffffffffffffff163373ffffffffffffffffffffffffffffffffffffffff16146105d4576040517f08c379a00000000000000000000000000000000000000000000000000000000081526004016105cb90611606565b60405180910390fd5b600560009054906101000a900460ff16610623576040517f08c379a000000000000000000000000000000000000000000000000000000000815260040161061a90611672565b60405180910390fd5b60006004805490501461066b576040517f08c379a000000000000000000000000000000000000000000000000000000000815260040161066290611770565b60405180910390fd5b6000600560006101000a81548160ff0219169083151502179055507f445f40d7036a39a53d5b99242bad06cc83dedd86210f42b498d96bd0926ef4a8426040516106b59190611372565b60405180910390a160008054906101000a900473ffffffffffffffffffffffffffffffffffffffff1673ffffffffffffffffffffffffffffffffffffffff16ff5b600181565b60008054906101000a900473ffffffffffffffffffffffffffffffffffffffff1673ffffffffffffffffffffffffffffffffffffffff163373ffffffffffffffffffffffffffffffffffffffff1614610789576040517f08c379a000000000000000000000000000000000000000000000000000000000815260040161078090611606565b60405180910390fd5b600560009054906101000a900460ff166107d8576040517f08c379a00000000000000000000000000000000000000000000000000000000081526004016107cf90611672565b60405180910390fd5b6000811161081b576040517f08c379a0000000000000000000000000000000000000000000000000000000008152600401610812906117dc565b60405180910390fd5b8060028190555060646003819055507ff93ce1b2e2cb74b524760dff1842e28b944e9c40627c07348a36c404be739c02428260405161085b929190611476565b60405180910390a150565b606060048054806020026020016040519081016040528092919081815260200182805480156108ea57602002820191906000526020600020905b8160009054906101000a900473ffffffffffffffffffffffffffffffffffffffff1673ffffffffffffffffffffffffffffffffffffffff16815260200190600101908083116108a0575b5050505050905090565b6004818154811061090457600080fd5b906000526020600020016000915054906101000a900473ffffffffffffffffffffffffffffffffffffffff1681565b60008054906101000a900473ffffffffffffffffffffffffffffffffffffffff1673ffffffffffffffffffffffffffffffffffffffff163373ffffffffffffffffffffffffffffffffffffffff16036109c1576040517f08c379a00000000000000000000000000000000000000000000000000000000081526004016109b890611848565b60405180910390fd5b600560009054906101000a900460ff16610a10576040517f08c379a0000000000000000000000000000000000000000000000000000000008152600401610a0790611672565b60405180910390fd5b600160003373ffffffffffffffffffffffffffffffffffffffff1673ffffffffffffffffffffffffffffffffffffffff16815260200190815260200160002060000154341115610a95576040517f08c379a0000000000000000000000000000000000000000000000000000000008152600401610a8c906118b4565b60405180910390fd5b34600160003373ffffffffffffffffffffffffffffffffffffffff1673ffffffffffffffffffffffffffffffffffffffff1681526020019081526020016000206000016000828254610ae79190611903565b9250508190555062093a80600160003373ffffffffffffffffffffffffffffffffffffffff1673ffffffffffffffffffffffffffffffffffffffff1681526020019081526020016000206001015442610b409190611903565b1015610bca577f01cc4a5b4b7296e86c48d414286509d7cd8c31131f816dcd54164066421fd36f4234600160003373ffffffffffffffffffffffffffffffffffffffff1673ffffffffffffffffffffffffffffffffffffffff1681526020019081526020016000206000015433604051610bbd9493929190611937565b60405180910390a1610ca7565b7fb03fae49188cc9ffc931e7694517894fc83fbf44cb6dc766b2dbeacde71f8c504234600160003373ffffffffffffffffffffffffffffffffffffffff1673ffffffffffffffffffffffffffffffffffffffff168152602001908152602001600020600001543362093a80600160003373ffffffffffffffffffffffffffffffffffffffff1673ffffffffffffffffffffffffffffffffffffffff1681526020019081526020016000206001015442610c839190611903565b610c8d9190611903565b604051610c9e95949392919061197c565b60405180910390a15b6000600160003373ffffffffffffffffffffffffffffffffffffffff1673ffffffffffffffffffffffffffffffffffffffff1681526020019081526020016000206000015403610e585760005b600480549050811015610e56573373ffffffffffffffffffffffffffffffffffffffff1660048281548110610d2c57610d2b6119cf565b5b9060005260206000200160009054906101000a900473ffffffffffffffffffffffffffffffffffffffff1673ffffffffffffffffffffffffffffffffffffffff1603610e435760048181548110610d8657610d856119cf565b5b9060005260206000200160006101000a81549073ffffffffffffffffffffffffffffffffffffffff0219169055600160003373ffffffffffffffffffffffffffffffffffffffff1673ffffffffffffffffffffffffffffffffffffffff168152602001908152602001600020600080820160009055600182016000905550507f2ef4d4a343c4e0bf5bebe0d1900f23c1cf439484b3d1e4ad220f636ce3e7f65d4233604051610e369291906119fe565b60405180910390a1610e56565b8080610e4e90611a27565b915050610cf4565b505b565b6000600160008373ffffffffffffffffffffffffffffffffffffffff1673ffffffffffffffffffffffffffffffffffffffff168152602001908152602001600020600001549050919050565b60008054906101000a900473ffffffffffffffffffffffffffffffffffffffff1673ffffffffffffffffffffffffffffffffffffffff163373ffffffffffffffffffffffffffffffffffffffff1603610f34576040517f08c379a0000000000000000000000000000000000000000000000000000000008152600401610f2b90611848565b60405180910390fd5b600560009054906101000a900460ff16610f83576040517f08c379a0000000000000000000000000000000000000000000000000000000008152600401610f7a90611672565b60405180910390fd5b80471015610fc6576040517f08c379a0000000000000000000000000000000000000000000000000000000008152600401610fbd90611abb565b60405180910390fd5b600060035460025483610fd99190611adb565b610fe39190611b64565b905060008183610ff39190611b95565b90506000600160003373ffffffffffffffffffffffffffffffffffffffff1673ffffffffffffffffffffffffffffffffffffffff1681526020019081526020016000206000015403611110576004339080600181540180825580915050600190039060005260206000200160009091909190916101000a81548173ffffffffffffffffffffffffffffffffffffffff021916908373ffffffffffffffffffffffffffffffffffffffff1602179055506040518060400160405280600081526020016000815250600160003373ffffffffffffffffffffffffffffffffffffffff1673ffffffffffffffffffffffffffffffffffffffff16815260200190815260200160002060008201518160000155602082015181600101559050505b80600160003373ffffffffffffffffffffffffffffffffffffffff1673ffffffffffffffffffffffffffffffffffffffff16815260200190815260200160002060000160008282546111629190611b95565b9250508190555042600160003373ffffffffffffffffffffffffffffffffffffffff1673ffffffffffffffffffffffffffffffffffffffff168152602001908152602001600020600101819055503373ffffffffffffffffffffffffffffffffffffffff166108fc849081150290604051600060405180830381858888f193505050501580156111f6573d6000803e3d6000fd5b507ff163e724c8c911d5c1534a78dd7ea6cfe7417aceb6db4bc97f752ce7e8c1b1474284843360405161122c9493929190611937565b60405180910390a1505050565b60008054906101000a900473ffffffffffffffffffffffffffffffffffffffff1673ffffffffffffffffffffffffffffffffffffffff163373ffffffffffffffffffffffffffffffffffffffff16146112c7576040517f08c379a00000000000000000000000000000000000000000000000000000000081526004016112be90611606565b60405180910390fd5b600560009054906101000a900460ff16611316576040517f08c379a000000000000000000000000000000000000000000000000000000000815260040161130d90611672565b60405180910390fd5b7f1ca606821992e3b34613b5b29c0bbade3a907b2969d7f9f2927f726fa4baccfb42344760405161134993929190611beb565b60405180910390a1565b60025481565b6000819050919050565b61136c81611359565b82525050565b60006020820190506113876000830184611363565b92915050565b600080fd5b61139b81611359565b81146113a657600080fd5b50565b6000813590506113b881611392565b92915050565b6000602082840312156113d4576113d361138d565b5b60006113e2848285016113a9565b91505092915050565b600073ffffffffffffffffffffffffffffffffffffffff82169050919050565b6000611416826113eb565b9050919050565b6114268161140b565b811461143157600080fd5b50565b6000813590506114438161141d565b92915050565b60006020828403121561145f5761145e61138d565b5b600061146d84828501611434565b91505092915050565b600060408201905061148b6000830185611363565b6114986020830184611363565b9392505050565b600081519050919050565b600082825260208201905092915050565b6000819050602082019050919050565b6114d48161140b565b82525050565b60006114e683836114cb565b60208301905092915050565b6000602082019050919050565b600061150a8261149f565b61151481856114aa565b935061151f836114bb565b8060005b8381101561155057815161153788826114da565b9750611542836114f2565b925050600181019050611523565b5085935050505092915050565b6000602082019050818103600083015261157781846114ff565b905092915050565b6115888161140b565b82525050565b60006020820190506115a3600083018461157f565b92915050565b600082825260208201905092915050565b7f4f6e6c79206f776e657220616c6c6f7765640000000000000000000000000000600082015250565b60006115f06012836115a9565b91506115fb826115ba565b602082019050919050565b6000602082019050818103600083015261161f816115e3565b9050919050565b7f436f6e7472616374206973206e6f742061637469766500000000000000000000600082015250565b600061165c6016836115a9565b915061166782611626565b602082019050919050565b6000602082019050818103600083015261168b8161164f565b9050919050565b7f4e6f7420656e6f756768742062616c616e636500000000000000000000000000600082015250565b60006116c86013836115a9565b91506116d382611692565b602082019050919050565b600060208201905081810360008301526116f7816116bb565b9050919050565b7f43616e6e6f7420636c6f736520647565206578697374696e6720626f72726f7760008201527f6572730000000000000000000000000000000000000000000000000000000000602082015250565b600061175a6023836115a9565b9150611765826116fe565b604082019050919050565b600060208201905081810360008301526117898161174d565b9050919050565b7f496e76616c696420696e74657265737420726174650000000000000000000000600082015250565b60006117c66015836115a9565b91506117d182611790565b602082019050919050565b600060208201905081810360008301526117f5816117b9565b9050919050565b7f4f776e6572206e6f7420616c6c6f776564000000000000000000000000000000600082015250565b60006118326011836115a9565b915061183d826117fc565b602082019050919050565b6000602082019050818103600083015261186181611825565b9050919050565b7f4f76657270616964206e6f7420616c6c6f776564000000000000000000000000600082015250565b600061189e6014836115a9565b91506118a982611868565b602082019050919050565b600060208201905081810360008301526118cd81611891565b9050919050565b7f4e487b7100000000000000000000000000000000000000000000000000000000600052601160045260246000fd5b600061190e82611359565b915061191983611359565b92508282101561192c5761192b6118d4565b5b828203905092915050565b600060808201905061194c6000830187611363565b6119596020830186611363565b6119666040830185611363565b611973606083018461157f565b95945050505050565b600060a0820190506119916000830188611363565b61199e6020830187611363565b6119ab6040830186611363565b6119b8606083018561157f565b6119c56080830184611363565b9695505050505050565b7f4e487b7100000000000000000000000000000000000000000000000000000000600052603260045260246000fd5b6000604082019050611a136000830185611363565b611a20602083018461157f565b9392505050565b6000611a3282611359565b91507fffffffffffffffffffffffffffffffffffffffffffffffffffffffffffffffff8203611a6457611a636118d4565b5b600182019050919050565b7f4e6f7420656e6f7567682062616c616e63650000000000000000000000000000600082015250565b6000611aa56012836115a9565b9150611ab082611a6f565b602082019050919050565b60006020820190508181036000830152611ad481611a98565b9050919050565b6000611ae682611359565b9150611af183611359565b9250817fffffffffffffffffffffffffffffffffffffffffffffffffffffffffffffffff0483118215151615611b2a57611b296118d4565b5b828202905092915050565b7f4e487b7100000000000000000000000000000000000000000000000000000000600052601260045260246000fd5b6000611b6f82611359565b9150611b7a83611359565b925082611b8a57611b89611b35565b5b828204905092915050565b6000611ba082611359565b9150611bab83611359565b9250827fffffffffffffffffffffffffffffffffffffffffffffffffffffffffffffffff03821115611be057611bdf6118d4565b5b828201905092915050565b6000606082019050611c006000830186611363565b611c0d6020830185611363565b611c1a6040830184611363565b94935050505056fea2646970667358221220623f6a81a87124481499e0f1663dd5f5d22915a163b2ffb431e761acec179c0c64736f6c634300080d0033",
  "immutableReferences": {},
  "source": "// SPDX-License-Identifier: MIT\r\npragma solidity >=0.8.0;\r\n\r\ncontract SimpleLoan {\r\n    address payable owner;\r\n    struct DebtInfo {\r\n        uint balance;\r\n        uint lastBorrowed; //Collect time of last borrowing (block.timestamp)\r\n    }\r\n    mapping(address => DebtInfo) public debts; //Debt Table\r\n    uint public interestRateNumerator;\r\n    uint public interestRateDenominator;\r\n    uint public constant DEFAULT_INTEREST_NUMERATOR = 1;\r\n    uint public constant DEFAULT_INTEREST_DENOMINATOR = 10;\r\n    uint public constant PAYBACK_PERIOD = 60 * 60 * 24 * 7; // 7 Days\r\n\r\n    address[] public borrowers;\r\n    bool active;\r\n\r\n    constructor(){\r\n        owner = payable(msg.sender);\r\n        interestRateNumerator = DEFAULT_INTEREST_NUMERATOR;\r\n        interestRateDenominator = DEFAULT_INTEREST_DENOMINATOR;\r\n        active = true;\r\n    }\r\n\r\n    modifier onlyOwner {\r\n        require(msg.sender == owner, \"Only owner allowed\");\r\n        _;\r\n    }\r\n\r\n    modifier notAnOwner {\r\n        require(msg.sender != owner, \"Owner not allowed\");\r\n        _;\r\n    }\r\n\r\n    modifier whenActive {\r\n        require(active, \"Contract is not active\");\r\n        _;\r\n    }\r\n    function getBorrowers() public view returns (address[] memory) {\r\n        return borrowers;\r\n    }\r\n    function getDebt(address borrower) public view returns (uint) {\r\n        return debts[borrower].balance;\r\n    }\r\n    event Deposited(uint time, uint amount, uint balance);\r\n\r\n    function deposit() public payable onlyOwner whenActive {\r\n        emit Deposited(block.timestamp, msg.value, address(this).balance);\r\n    }\r\n\r\n    event InterestRateChanged(uint time, uint newRate);\r\n\r\n    function setInterestRate(uint numerator) public onlyOwner whenActive {\r\n        require (numerator > 0, \"Invalid interest rate\");\r\n        interestRateNumerator = numerator;\r\n        interestRateDenominator = 100;\r\n        emit InterestRateChanged(block.timestamp, numerator);\r\n    }\r\n\r\n    event Borrowed(uint time, uint amount, uint interest, address borrower);\r\n\r\n    function borrow(uint amount) external notAnOwner whenActive {\r\n        require(address(this).balance >= amount, \"Not enough balance\");\r\n        uint interest = (amount * interestRateNumerator / interestRateDenominator);\r\n        uint debt = amount + interest;\r\n        if(debts[msg.sender].balance == 0){\r\n            borrowers.push(msg.sender);\r\n            debts[msg.sender] = DebtInfo(0,0);\r\n        }\r\n        debts[msg.sender].balance += debt;\r\n        debts[msg.sender].lastBorrowed = block.timestamp;\r\n        payable(msg.sender).transfer(amount);\r\n        emit Borrowed(block.timestamp, amount, interest, msg.sender);\r\n    }\r\n    event Paybacked(uint time, uint amount, uint remaining, address borrower);\r\n    event LatePaybacked(uint time, uint amount, uint remaining, address borrower, uint period);\r\n    event DebtCleared(uint time, address borrower);\r\n    function payback() external payable notAnOwner whenActive {\r\n        require(msg.value <= debts[msg.sender].balance, \"Overpaid not allowed\");\r\n        debts[msg.sender].balance -= msg.value;\r\n        if(block.timestamp - debts[msg.sender].lastBorrowed < PAYBACK_PERIOD){\r\n            emit Paybacked(block.timestamp, msg.value, debts[msg.sender].balance, msg.sender);\r\n        }\r\n        else {\r\n            emit LatePaybacked(block.timestamp, msg.value, debts[msg.sender].balance, msg.sender, \r\n                block.timestamp - debts[msg.sender].lastBorrowed - PAYBACK_PERIOD);\r\n        }\r\n        if(debts[msg.sender].balance == 0){\r\n            for(uint i = 0; i < borrowers.length; i++){\r\n                if(borrowers[i] == msg.sender){\r\n                    delete borrowers[i];\r\n                    delete debts[msg.sender];\r\n                    emit DebtCleared(block.timestamp, msg.sender);\r\n                    break;\r\n                }\r\n            }\r\n        }\r\n    }\r\n\r\n    event Withdrawn(uint time, uint amount);\r\n    function withdraw(uint amount) external onlyOwner whenActive {\r\n        require(amount <= address(this).balance, \"Not enought balance\");\r\n        owner.transfer(amount);\r\n        emit Withdrawn(block.timestamp, amount);\r\n    }\r\n    event ClosedDown(uint time);\r\n    function closeDown() external onlyOwner whenActive {\r\n        require(borrowers.length == 0, \"Cannot close due existing borrowers\");\r\n        active = false;\r\n        emit ClosedDown(block.timestamp);\r\n        selfdestruct(owner);\r\n    }\r\n}",
  "sourcePath": "C:\\Users\\boype\\Documents\\GitHub\\DPU-Solidity\\contracts\\SimpleLoan.sol",
  "compiler": {
    "name": "solc",
    "version": "0.8.13+commit.abaa5c0e.Emscripten.clang"
  },
  "schemaVersion": "3.4.10",
  "updatedAt": "2022-11-08T04:51:34.601Z",
  "networkType": "ethereum",
  "devdoc": {
    "kind": "dev",
    "methods": {},
    "version": 1
  },
  "userdoc": {
    "kind": "user",
    "methods": {},
    "version": 1
  }
}